:100000000C9491010C94B9010C94B9010C94B901B0
:100010000C94B9010C94B9010C94B9010C94B90178
:100020000C94B9010C94B9010C9461070C94250748
:100030000C94B9010C94B9010C94B9010C94B90158
:100040000C94B9010C94B9010C94B9010C94B90148
:100050000C94B9010C94B9010C94B9010C94DB0611
:100060000C94B9010C94B9010C94B9010C94B90128
:100070000C94B9010C94B9010C94B9010C94B90118
:100080000C94B9010C94B9010C94B9010C94B90108
:100090000C94B9010C94B9010C94B9010C94B901F8
:1000A0000C94B9010C94B9010C94B901120100022D
:1000B000FFFFFF405E048E021401010203010501EF
:1000C0000905A101150025013500450175019510AF
:1000D000050919012910810205012507463B017513
:1000E0000495016514093981426500950181012655
:1000F000FF0046FF000930093109320935750895BE
:100100000481020600FF0920950181020A2126953B
:10011000089102C012010002000000400D0F920081
:10012000000101020001080331002E003000000030
:10013000240350004F004B004B0045004E002000B0
:1001400043004F004E00540052004F004C004C0042
:1001500045005200000040034B00410044004500B0
:1001600020002D0020004B00690063006B00200080
:100170004100730073002000440079006E006100AC
:100180006D0069006300200045006E0063006F0091
:1001900064006500720000001C0348004F0052001C
:1001A0004900200043004F002E002C004C0054005A
:1001B00044002E0000001A036B006100640065001B
:1001C00076006900630065002E006E006500740013
:1001D0000000040309040902290001010080FA0952
:1001E0000400000203000000092111010001225651
:1001F00000070502034000100705810340000109C4
:10020000029900040100A0FA0904000002FF5D0148
:1002100000112100010125811400000000130108D4
:1002200000000705810320000107050103200008E5
:100230000904010004FF5D03001B2100010101828C
:100240004001022016830000000000001603000099
:1002500000000000070582032000020705020320BA
:100260000004070583032000400705030320001056
:100270000904020001FF5D0200092100010122843E
:100280000700070584032000100904030000FFFD98
:1002900013040641000101030000000025002800AE
:1002A0002B002E00310000000000240027002A004F
:1002B0002D003000000000002300260029002C0043
:1002C0002F000404040404030405020202020403D0
:1002D00002020202060606060606040402020204E0
:1002E0000404080201104080401020408040800833
:1002F00002040180402010020110801020404020A4
:100300000000000200090F0000030401000C0000BF
:1003100000000000000000000000000000000000DD
:10032000E50E11241FBECFEFDAE0DEBFCDBF11E036
:10033000A0E0B1E0E6EAFEE102C005900D92AA302D
:10034000B107D9F722E0AAE0B1E001C01D92A439BB
:10035000B207E1F711E0C1E9D1E004C02197FE0145
:100360000E943F0FC039D107C9F70E9438080C948A
:10037000510F0C940000282F30E0F901E050FD4FA0
:100380009491F901EF51FD4F84912E533D4FF901A6
:100390002491222309F45BC09923E9F091509F3006
:1003A000D0F4E92FF0E0E952FE4F0C943F0F020227
:1003B0000602E601FA01FE01EB01EB01EB01090285
:1003C0000F02130217021D02EB012102909180001F
:1003D0009F7790938000E22FF0E0EE0FFF1FEC5428
:1003E000FD4FA591B491EC91E82381E090E089F56F
:1003F00080E00895909180009F7DEBCF90918000E8
:10040000977FE7CF94B59F7794BDE5CF94B59F7D57
:10041000FBCF909190009F7790939000DCCF9091CC
:1004200090009F7DF9CF90919000977FF5CF9091AC
:10043000C0009F779093C000CECF9091C0009F7D69
:10044000F9CF9091C200977F9093C200C4CF80E013
:1004500090E00895CF93DF9390E0FC01EF51FD4FC2
:1004600024918E539D4FFC0184918823C9F090E024
:10047000880F991FFC01EA55FD4FA591B491FC012D
:10048000E856FD4FC591D49161110DC09FB7F89406
:100490008C91209582238C938881282328839FBF69
:1004A000DF91CF910895623051F49FB7F8943C9159
:1004B000822F809583238C93E8812E2BEFCF8FB7EB
:1004C000F894EC912E2B2C938FBFEACF862F642FBC
:1004D0000C942A023FB7F89480911701909118016B
:1004E000A0911901B0911A0126B5A89B05C02F3F14
:1004F00019F00196A11DB11D3FBFBA2FA92F982F4A
:100500008827BC01CD01620F711D811D911D42E044
:10051000660F771F881F991F4A95D1F708952FB747
:10052000F8946091130170911401809115019091DC
:1005300016012FBF0895FC01808580FD04C082FB59
:10054000882780F9089580E00895FC0181890E9440
:10055000BB0121E0892B09F420E0822F08951F932D
:10056000CF93DF93EC01162F62E0812F0E942A02C5
:10057000198B1886CE010E94A502882319F0888560
:10058000836088870E948F026A837B838C839D832C
:10059000DF91CF911F910895CF92DF92EF92FF925A
:1005A0000F931F93CF93DF93EC0188858B7F888710
:1005B000CE010E94A502182F888586958170181794
:1005C000B9F00E948F026A837B838C839D83888528
:1005D00092E089278887888582FB882780F9DF91C8
:1005E000CF911F910F91FF90EF90DF90CF900895E2
:1005F0000E948F02CA80DB80EC80FD80AB01BC01D1
:100600004C195D096E097F098E819F81B0E0A0E0E1
:10061000481759076A077B07F0F288858170181719
:10062000D1F20E948F026A837B838C839D838885AD
:1006300091E08927846088870E948F0209851A8546
:100640002B853C85601B710B820B930B6D877E871E
:100650008F87988B0E948F0269877A878B879C8708
:10066000BACFEF92FF920F931F93CF93DF93FB01CB
:10067000D901E701882331F1442321F1013011052B
:10068000E9F068F00230110569F00330110571F0EE
:10069000DF91CF911F910F91FF90EF9008951C92E1
:1006A0001082F6CF108281E08C93F2CF88819981FD
:1006B00081309105B9F398F3029751F781E0808377
:1006C0001C92E6CF4C938083882339F081E090E040
:1006D0004111DECF99838883DBCF82E090E0411126
:1006E000F9CFD6CFFC012091100130911101621792
:1006F000730708F49B0190E02115310541F4911135
:1007000006C08091E80082FF33C080E008958091A8
:1007100092028823C9F18530C9F18091E80083FDF8
:1007200031C08091E80082FDECCF8091E80080FF2D
:10073000E3CF4091F3008091F200542F482F211510
:10074000310519F04034510558F091E0403451051D
:1007500009F090E04091E8004E774093E800CCCF5C
:1007600081918093F100215031094F5F5F4FE7CFB6
:1007700080919202882341F0853041F08091E80019
:1007800083FFBFCF81E0089582E0089583E008955C
:100790002091E4003091E50085E69091EC0090FF17
:1007A00006C09091E80090FF06C080E00895909107
:1007B000E80092FDFACF90919202992391F0953042
:1007C00091F09091EB0095FD10C04091E4005091A4
:1007D000E5002417350709F381509A01F1F684E00A
:1007E000089582E0089583E0089581E0089580915E
:1007F0000A0187FF13C08091E80082FF06C0809144
:10080000E8008B778093E80004C080919202811108
:10081000F2CF0895809192028823D9F38091E80065
:1008200080FFF8CF8091E8008E77ECCF982F9093DF
:10083000E900242F762F50E0891731F07091EC00F9
:100840002091ED005091F00021FD07C09F5F97308F
:1008500071F78093E90081E008953091EB003E7FCD
:100860003093EB003091ED003D7F3093ED003091FF
:10087000EB0031603093EB007093EC002093ED00BF
:100880005093F0002091EE0027FDE0CF80E0089526
:100890000F931F93CF93DF93CDB7DEB7AA970FB611
:1008A000F894DEBF0FBECDBFEAE0F1E082E191E057
:1008B0002091F10021938E179F07D1F7809191022B
:1008C0008823C1F080910B018130A1F480910A014D
:1008D000813A81F48091E800877F8093E80064E1A9
:1008E00070E08DE792E00E9472038091E8008B77C0
:1008F0008093E8008091E80083FF44C010910A01D2
:1009000090910B019A3008F03DC0E92FF0E0E557D7
:10091000FB4F0C943F0F9504BB04C204BB04C204FC
:100920001A053C05C20443065006103889F01238F7
:1009300049F580910E018F70873020F58093E90092
:100940008091EB0085FB882780F91092E90006C0B2
:1009500080911C0190911D01911182609091E8009D
:10096000977F9093E8008093F1001092F1008091BE
:10097000E8008E772EC0812F8D7F21F41123D9F0CE
:10098000123061F18091E80083FF0AC08091E80095
:10099000877F8093E8008091EB0080628093EB007A
:1009A000AA960FB6F894DEBF0FBECDBFDF91CF91F0
:1009B0001F910F91089580910C01813019F79330A8
:1009C00009F080E080931D011092E9008091E80019
:1009D000877F8093E8000E94F703D4CF80910C01B9
:1009E0008111F2CF80910E018F702FEF280F2630EA
:1009F00048F68093E9002091EB0020FFE5CF93308B
:100A000031F48091EB0080628093EB00DDCF909118
:100A1000EB0090619093EB0021E030E001C0220FE9
:100A20008A95EAF72093EA001092EA008091EB00A1
:100A30008860EACF1111A6CF10910C011F77809129
:100A4000E3008078812B8093E3008091E800877F2A
:100A50008093E8000E94F7038091E80080FFFCCFBC
:100A60008091E30080688093E30083E0111101C06E
:100A700082E08093920286CF1058123008F082CF25
:100A800080910C0190910D018C3D23E09207A1F51E
:100A900083E08A838AE289834FB7F894DE01139654
:100AA00020E03EE051E2E32FF0E050935700E49164
:100AB00020FF03C0E295EF703F5FEF708E2F90E054
:100AC000EA30C0F0C7968D939D932F5F243159F77C
:100AD0004FBF8091E800877F8093E8006AE270E072
:100AE000CE0101960E9472038091E8008B7780937B
:100AF000E80048CFC096E7CF292F332723303105B0
:100B000009F44CC088F42130310509F43EC022308C
:100B1000310509F037CF80911B0181117BC089E23B
:100B200090E0E6EDF1E00CC02132310509F468C037
:100B300086E590E0EEEBF0E02232310509F022CFBD
:100B40002091E800277F2093E80020911001309148
:100B500011018217930708F49C0140E0211531052B
:100B600009F05DC041115BC08091E80082FDBCCFFF
:100B700080919202882309F4B7CF853009F4B4CF6D
:100B80008091E80083FFF0CFAFCF80911B018111EE
:100B90003CC082E190E0E4E1F1E0D2CF99278130DE
:100BA0009105D1F070F08230910509F1039709F0B9
:100BB000E9CEE6E2F1E0E4918E2F90E0E6E2F1E0AA
:100BC00007C0E2EDF1E0E4918E2F90E0E2EDF1E07C
:100BD000009709F4D7CEB4CF80911B01E6EBF1E08A
:100BE000811102C0E8E9F1E0849190E0F1CF8091B9
:100BF0001B01E6E5F1E08111F7CFE0E3F1E0F4CF8E
:100C000089E090E0E8EEF1E09BCF82E190E0ECEA51
:100C1000F0E096CF89E990E0EFEFF1E091CF80919D
:100C20009202882309F460CF853009F45DCF80916A
:100C3000E80083FD59CF8091E80082FD95CF809137
:100C4000E80080FF8BCF8091F3009091F20089271C
:100C5000982789272115310519F08034910558F01E
:100C600041E08034910509F040E08091E8008E7702
:100C70008093E80073CF44914093F1003196215066
:100C800031090196E7CF103809F07CCE8091E80059
:100C9000877F8093E80080911E018093F10067CEEA
:100CA000111170CE00910C01023008F06BCE8091D2
:100CB000E800877F8093E80000931E010E94F703FD
:100CC0000023F9F084E080939202809191028111D7
:100CD0001EC042E360EC82E00E94160420E430E093
:100CE00088E090E01F5F880F991F82179307D0F369
:100CF000412F4295407F426061EC81E00E941604E2
:100D000041CE8091E30087FDDDCF81E0DCCF42E280
:100D100061EC83E00E94160424E130E0E1CFCF9340
:100D2000C091930282E090E00E94290FC81729F039
:100D30006C2F82E090E00E94310F83E992E0CF9126
:100D400008950F931F93CF93DF938C01EB010E94C3
:100D5000290F8883C80101960E94290F8983CE013B
:100D6000DF91CF911F910F910895FF920F931F93E1
:100D7000CF93DF93EC018B01FB01F0800E94290FE0
:100D8000F81621F06F2DCE010E94310FF801F1808D
:100D90002196CE010E94290FF81621F06F2DCE0169
:100DA0000E94310FC801DF91CF911F910F91FF90E9
:100DB00008950E94450F1F920F920FB60F921124B3
:100DC0002F933F938F939F93AF93BF938091130182
:100DD00090911401A0911501B0911601309112016A
:100DE00023E0230F2D3758F50196A11DB11D209347
:100DF00012018093130190931401A0931501B093F5
:100E000016018091170190911801A0911901B091DC
:100E10001A010196A11DB11D80931701909318012D
:100E2000A0931901B0931A01BF91AF919F918F9137
:100E30003F912F910F900FBE0F901F90189526E8AD
:100E4000230F0296A11DB11DD2CF1F920F920FB694
:100E50000F9211242F933F934F935F936F937F9340
:100E60008F939F93AF93BF93CF93EF93FF93C091D3
:100E7000E900CF708091EC001092E9008091F000C1
:100E8000877F8093F00078940E9448041092E900D4
:100E90008091F00088608093F000C093E900FF919A
:100EA000EF91CF91BF91AF919F918F917F916F9172
:100EB0005F914F913F912F910F900FBE0F901F9018
:100EC00018951F920F920FB60F9211242F933F93F4
:100ED0004F935F936F937F938F939F93AF93BF9342
:100EE000EF93FF938091E10082FF09C08091E200BF
:100EF00082FF05C08091E1008B7F8093E1008091AB
:100F0000DA0080FF17C08091D80080FF13C0809165
:100F1000DA008E7F8093DA008091D90080FF8CC048
:100F200080E189BD82E189BD09B400FEFDCF81E089
:100F3000809392028091E10080FF17C08091E200CF
:100F400080FF13C08091E2008E7F8093E200809149
:100F5000E20080618093E2008091D80080628093FB
:100F6000D80019BC85E0809392028091E10084FF53
:100F700027C08091E20084FF23C080E189BD82E127
:100F800089BD09B400FEFDCF8091D8008F7D80938C
:100F9000D8008091E1008F7E8093E1008091E20093
:100FA0008F7E8093E2008091E20081608093E20076
:100FB00080911E01882309F443C084E0809392024B
:100FC0008091E10083FF27C08091E20083FF23C06E
:100FD0008091E100877F8093E10082E0809392021C
:100FE00010921E018091E1008E7F8093E10080913C
:100FF000E2008E7F8093E2008091E2008061809326
:10100000E20042E360E080E00E9416048091F0007C
:1010100088608093F000FF91EF91BF91AF919F9115
:101020008F917F916F915F914F913F912F910F9091
:101030000FBE0F901F90189519BC109292027ACF94
:101040008091E30087FD02C081E0B8CF83E0B6CF96
:10105000FC0112821382148215828AE090E0978349
:101060008683108686E091E091838083118A0895BB
:10107000CF93DF93CDB7DEB729970FB6F894DEBFD5
:101080000FBECDBF789484B5826084BD84B5816085
:1010900084BD85B5826085BD85B5816085BD809143
:1010A0006E00816080936E001092810080918100BB
:1010B00082608093810080918100816080938100B3
:1010C0008091800081608093800080919100826097
:1010D0008093910080919100816080939100809134
:1010E00090008160809390008091C1008460809323
:1010F000C1008091C10082608093C1008091C100D5
:1011000081608093C1008091C30081608093C3009F
:101110008091C00082608093C0008091C200816095
:101120008093C20080917A00846080937A008091DD
:101130007A00826080937A0080917A008160809347
:101140007A0080917A00806880937A00109252022F
:1011500067E572E090E080E00E94A10682E090E006
:101160000E94290F809393026DE572E084E090E085
:101170000E94A10660E071E086E090E00E94A10676
:1011800069E070E080E492E00E94AF0267E070E006
:101190008EE292E00E94AF0266E070E08CE192E0A5
:1011A0000E94AF0268E070E08AE092E00E94AF0225
:1011B0006EE070E088EF91E00E94AF026AE070E0BC
:1011C00086EE91E00E94AF026FE070E084ED91E066
:1011D0000E94AF0260E170E082EC91E00E94AF02F9
:1011E00065E170E080EB91E00E94AF0263E170E0A6
:1011F0008EE991E00E94AF0264E170E08CE891E03A
:101200000E94AF0262E170E08AE791E00E94AF02C3
:1012100065E070E088E691E00E94AF0263E070E074
:1012200086E591E00E94AF0261E070E084E491E025
:101230000E94AF0262E070E082E391E00E94AF02A0
:1012400070E060E080E291E00E94AF0281E090E017
:101250009093470280934602909335028093340224
:1012600090932302809322029093110280931002A4
:101270009093FF018093FE019093ED018093EC0128
:101280009093DB018093DA019093C9018093C801A8
:101290009093B7018093B6019093A5018093A40128
:1012A00090939301809392019093810180938001A8
:1012B00090936F0180936E0190935D0180935C0128
:1012C00090934B0180934A019093390180933801A8
:1012D00090932701809326010E946A024B015C01D2
:1012E000F4EFCF2EDD24D394E12CF12C0E946A027E
:1012F000681979098A099B09683E7340810591053F
:10130000A8F321E0C21AD108E108F10888EE880E9E
:1013100083E0981EA11CB11CC114D104E104F104A6
:1013200029F782E00E94BB01892B09F039C3109292
:1013300093020E948F068091930280939102809382
:101340001B0184B7877F84BF0FB6F894A89580915E
:101350006000886180936000109260000FBE80E89A
:1013600030E020E00FB6F894809361002093610094
:101370000FBE8091D8008F7E8093D8008091D700D7
:1013800081608093D70084E082BF81E080931F0159
:101390008091D8008E7F8093D8001092E200109246
:1013A000DA001092E1008091D8008F778093D80006
:1013B0008091D80080688093D8008091D8008F7D7C
:1013C0008093D80019BC1092920210921E011092C4
:1013D0001D0110921C018091E0008B7F8093E00042
:1013E0008091D80081608093D80042E360E080E083
:1013F0000E9416048091E1008E7F8093E10080912D
:10140000E20081608093E2008091E2008860809336
:10141000E2008091E0008E7F8093E0008091D80010
:1014200080618093D800789422242394322C442421
:101430004A945EEF552E62E0C62ED12CAA24A394C6
:10144000B12CE3E08E2E912C0E948F0280E492E07A
:101450000E94CC028EE292E00E94CC028CE192E0EB
:101460000E94CC028AE092E00E94CC0230914802B5
:1014700020913602909124028091120232FD06C022
:1014800022FD04C092FD02C082FF10C03095317071
:10149000309359022095217020935A0290959170B3
:1014A00090935B028095817080935C0288EF91E05D
:1014B0000E94CC02882331F088EF91E00E949B02C9
:1014C0008093630286EE91E00E94CC02882331F083
:1014D00086EE91E00E949B028093640284ED91E08D
:1014E0000E94CC02882331F084ED91E00E949B029F
:1014F0008093650282EC91E00E94CC02882331F057
:1015000082EC91E00E949B028093660280EB91E066
:101510000E94CC02882331F080EB91E00E949B0274
:10152000809367028EE991E00E94CC02882331F01B
:101530008EE991E00E949B02809368028CE891E022
:101540000E94CC02882331F08CE891E00E949B023B
:10155000809369028AE791E00E94CC02882331F0EF
:101560008AE791E00E949B0280936A0288E691E0FC
:101570000E94CC02882331F088E691E00E949B0211
:101580008093710286E591E00E94CC02882331F0BD
:1015900086E591E00E949B028093720284E491E0D0
:1015A0000E94CC02882331F084E491E00E949B02E7
:1015B00080936B0282E391E00E94CC02882331F099
:1015C00082E391E00E949B0280936C0280E291E0B2
:1015D0000E94CC02882331F080E291E00E949B02BD
:1015E0008093730280916B02882309F43CC0809140
:1015F0006C028823C1F1809152029091710299236B
:1016000009F4FAC190917202992309F4F5C181118C
:101610002AC090913602917020912402217080910D
:10162000120281703091480230FDC9C19111C2C1CE
:1016300090920101809200012111D2C18111CBC190
:1016400090925E0280925D026DE572E084E090E02F
:101650000E94B50660E071E086E090E00E94B50669
:1016600081E08093520219821A821B821C82609050
:1016700000017090010100915D0210915E0225E56C
:10168000E22E22E0F22E9E012C5F3F4F40915C0241
:10169000BE016D5F7F4F80915B020E94310333E595
:1016A000E32E32E0F32E83019E012E5F3F4F4091E7
:1016B0005A02BE016F5F7F4F809159020E94310331
:1016C0002091570230915802898190E82115310507
:1016D00009F4B9C12230310509F0FBC190936D02C4
:1016E00090936E0290936F029093700280935F02CA
:1016F0008A81809360028B81809361028C818093C8
:10170000620280915F0220919102222309F422C299
:10171000882329F080917F02816080937F028091ED
:101720006002882329F080917F02826080937F028B
:1017300080916102882329F080917F0284608093E8
:101740007F0280916202882329F080917F02886065
:1017500080937F0230916D02329DC001339D900DC8
:1017600011249058909384028093830230916E02EA
:10177000349DC001359D900D112481509048909367
:1017800086028093850230916F02329DC001339DA5
:10179000900D112490589093880280938702309185
:1017A0007002349DC001359D900D112481509048E8
:1017B00090938A028093890280916B02882329F09A
:1017C00080917F02806180937F0280916C028823E8
:1017D00029F080917F02806280937F028091710264
:1017E000882329F080917F02806480937F0280911A
:1017F0007202882329F080917F02806880937F02A3
:1018000080916302882329F0809180028062809316
:10181000800280916402882329F080918002806197
:101820008093800280916502882329F08091800254
:1018300080688093800280916602882329F08091DD
:10184000800280648093800280916702882329F05F
:101850008091800281608093800280916802882359
:1018600029F08091800282608093800280917302CF
:10187000882329F080918002846080938002809187
:101880006902882319F08FEF8093810280916A02A8
:10189000882319F08FEF8093820280919202843026
:1018A00009F05FC094E1692E712C0DE712E021115F
:1018B0002BC082E08093E9008091E80082FF1FC086
:1018C0008091E80085FF16C00E94C803811112C0F4
:1018D00007E010E0CE0101967C018091E80085FDD3
:1018E00066C18091E8008B778093E8000E94C8036E
:1018F000882399F38091E8008B778093E80088E053
:10190000682E712C05E712E081E08093E900809158
:10191000E80080FF26C00E94C803811110C0730137
:10192000198708878091E80085FD4BC18091E80008
:101930008E778093E8000E94C803882399F38091F2
:10194000E8008E778093E800A30170E060E0C801B2
:101950000E944A0F80919102882319F084E1F801D6
:10196000818380919202882399F01091E9001F7081
:101970008091EC0080FF32C180E8182B1092E900C2
:101980008091E80083FD0E9448041F701093E900D5
:1019900080E090E0892B09F457CD0E94000054CDDF
:1019A00081E00E94BB01892B09F0C5CC81E08093C6
:1019B0009302BFCCB0920101A09200013DCE9111E3
:1019C00005C0D0920101C092000136CE10920101F3
:1019D0001092000131CEB0925E02A0925D0234CE30
:1019E000811105C0D0925E02C0925D022DCE109290
:1019F0005E0210925D0228CE811122C080915B02AE
:101A0000882359F0B0925802A092570267E572E01D
:101A100090E080E00E94B50623CE80915C0288238E
:101A200029F01092580210925702F0CF809159027B
:101A3000882309F415CED0925802C0925702E6CFFF
:101A40001092520210CE90936D0290936E021092FB
:101A50005F0210926002109261021092620288236B
:101A600089F09C81992331F0109270028FEF80935E
:101A70006F0247CE9B81992329F010927002109239
:101A80006F023FCE9A81992309F4AAC09C819923C1
:101A900021F08FEF80937002EACF9B81992321F090
:101AA0008FEF80937002EBCF882321F010927002A9
:101AB00080E8DDCF8FEF80937002FACF8C8188238E
:101AC00021F08FEF80936F0293C080E880936F02C4
:101AD00090C090936F029093700210925F021092E8
:101AE00060021092610210926202882349F09C8188
:101AF000992331F010926E028FEF80936D0201CE28
:101B00009A81992309F47FC09C81992321F08FEF5A
:101B100080936E02F2CF9B81992309F46DC08FEF01
:101B200080936E0210926D02ECCD992309F467C088
:101B300010926E02F7CF8FEF80936E0262C08C819D
:101B4000882321F08FEF80936D0265C080E8809339
:101B50006D0262C0882341F090916202992321F0C6
:101B600081E08093770260C090916002992309F42C
:101B700023C190916202992311F083E0F2CF9091FA
:101B80006102992309F44BC085E0EBCF809161029B
:101B9000882309F447C087E0E4CF84E0E2CF809156
:101BA0006202882311F082E0DCCF88E0DACF8091F6
:101BB000F100F70181937F010150110909F08DCEE9
:101BC00099CEE885F9858191F987E8878093F100BE
:101BD000F1E0EF1AF10809F0A5CEB1CE80E0CDCE4C
:101BE000811164CF8B81882309F468CF10926F0232
:101BF00080E88093700285CD882309F49CCF1092F1
:101C00006E0280E87ACF9B8181118FCF992309F4EE
:101C100096CF10926D0280E880936E0272CD882379
:101C200009F4BBCF1092770280916D028093780205
:101C300080916E028093790280916F0280937A0284
:101C40008091700280937B0280916302882349F027
:101C500080917502909176028460909376028093D1
:101C6000750280916402882349F0809175029091F9
:101C7000760282609093760280937502809165026D
:101C8000882349F080917502909176028860909344
:101C900076028093750280916602882349F08091D4
:101CA000750290917602816090937602809375021E
:101CB00080916702882349F08091750290917602A5
:101CC00080619093760280937502809168028823E8
:101CD00049F080917502909176028062909376022D
:101CE0008093750280916902882349F08091750282
:101CF0009091760280649093760280937502809131
:101D00006A02882349F0809175029091760280687A
:101D1000909376028093750280916B02882349F03C
:101D200080917502909176029260909376028093F2
:101D3000750280916C02882349F080917502909120
:101D4000760291609093760280937502809173027F
:101D5000882349F08091750290917602906190936A
:101D600076028093750280917102882349F08091F8
:101D7000750290917602946090937602809375023A
:101D800080917202882349F08091750290917602C9
:101D900098609093760280937502809174028823F4
:101DA00009F47BCD809175029091760290629093B8
:101DB00076028093750271CD8111E8CE8091610227
:101DC000882309F4ECCE86E0CCCE80E492E00E9439
:101DD00028088EE292E00E9428088CE192E00E949E
:101DE00028088AE092E00E94280888EF91E00E948B
:101DF000280886EE91E00E94280884ED91E00E9478
:101E0000280882EC91E00E94280880EB91E00E9473
:101E100028088EE991E00E9428088CE891E00E9451
:101E200028088AE791E00E94280888E691E00E944D
:101E3000280886E591E00E94280884E491E00E9449
:101E4000280882E391E00E94280880E291E00C9447
:101E50002808F999FECF92BD81BDF89A992780B5DF
:101E60000895262FF999FECF1FBA92BD81BD20BDDE
:101E70000FB6F894FA9AF99A0FBE01960895EE0FEC
:101E8000FF1F0590F491E02D099481E090E0F89413
:101E90000C94510FDC0101C06D9341505040E0F7AC
:061EA0000895F894FFCF45
:0A1EA600010000000000A502660222
:00000001FF
